{
  "_format": "hh-sol-artifact-1",
  "contractName": "CertificateNFT",
  "sourceName": "contracts/MyContracts.sol",
  "abi": [
    {
      "inputs": [],
      "stateMutability": "nonpayable",
      "type": "constructor"
    },
    {
      "inputs": [
        {
          "internalType": "address",
          "name": "sender",
          "type": "address"
        },
        {
          "internalType": "uint256",
          "name": "tokenId",
          "type": "uint256"
        },
        {
          "internalType": "address",
          "name": "owner",
          "type": "address"
        }
      ],
      "name": "ERC721IncorrectOwner",
      "type": "error"
    },
    {
      "inputs": [
        {
          "internalType": "address",
          "name": "operator",
          "type": "address"
        },
        {
          "internalType": "uint256",
          "name": "tokenId",
          "type": "uint256"
        }
      ],
      "name": "ERC721InsufficientApproval",
      "type": "error"
    },
    {
      "inputs": [
        {
          "internalType": "address",
          "name": "approver",
          "type": "address"
        }
      ],
      "name": "ERC721InvalidApprover",
      "type": "error"
    },
    {
      "inputs": [
        {
          "internalType": "address",
          "name": "operator",
          "type": "address"
        }
      ],
      "name": "ERC721InvalidOperator",
      "type": "error"
    },
    {
      "inputs": [
        {
          "internalType": "address",
          "name": "owner",
          "type": "address"
        }
      ],
      "name": "ERC721InvalidOwner",
      "type": "error"
    },
    {
      "inputs": [
        {
          "internalType": "address",
          "name": "receiver",
          "type": "address"
        }
      ],
      "name": "ERC721InvalidReceiver",
      "type": "error"
    },
    {
      "inputs": [
        {
          "internalType": "address",
          "name": "sender",
          "type": "address"
        }
      ],
      "name": "ERC721InvalidSender",
      "type": "error"
    },
    {
      "inputs": [
        {
          "internalType": "uint256",
          "name": "tokenId",
          "type": "uint256"
        }
      ],
      "name": "ERC721NonexistentToken",
      "type": "error"
    },
    {
      "anonymous": false,
      "inputs": [
        {
          "indexed": true,
          "internalType": "address",
          "name": "owner",
          "type": "address"
        },
        {
          "indexed": true,
          "internalType": "address",
          "name": "approved",
          "type": "address"
        },
        {
          "indexed": true,
          "internalType": "uint256",
          "name": "tokenId",
          "type": "uint256"
        }
      ],
      "name": "Approval",
      "type": "event"
    },
    {
      "anonymous": false,
      "inputs": [
        {
          "indexed": true,
          "internalType": "address",
          "name": "owner",
          "type": "address"
        },
        {
          "indexed": true,
          "internalType": "address",
          "name": "operator",
          "type": "address"
        },
        {
          "indexed": false,
          "internalType": "bool",
          "name": "approved",
          "type": "bool"
        }
      ],
      "name": "ApprovalForAll",
      "type": "event"
    },
    {
      "anonymous": false,
      "inputs": [
        {
          "indexed": false,
          "internalType": "uint256",
          "name": "_fromTokenId",
          "type": "uint256"
        },
        {
          "indexed": false,
          "internalType": "uint256",
          "name": "_toTokenId",
          "type": "uint256"
        }
      ],
      "name": "BatchMetadataUpdate",
      "type": "event"
    },
    {
      "anonymous": false,
      "inputs": [
        {
          "indexed": false,
          "internalType": "uint256",
          "name": "_tokenId",
          "type": "uint256"
        }
      ],
      "name": "MetadataUpdate",
      "type": "event"
    },
    {
      "anonymous": false,
      "inputs": [
        {
          "indexed": true,
          "internalType": "address",
          "name": "from",
          "type": "address"
        },
        {
          "indexed": true,
          "internalType": "address",
          "name": "to",
          "type": "address"
        },
        {
          "indexed": true,
          "internalType": "uint256",
          "name": "tokenId",
          "type": "uint256"
        }
      ],
      "name": "Transfer",
      "type": "event"
    },
    {
      "inputs": [
        {
          "internalType": "uint256",
          "name": "_tokenId",
          "type": "uint256"
        }
      ],
      "name": "CheckCertificateOwnership",
      "outputs": [],
      "stateMutability": "view",
      "type": "function"
    },
    {
      "inputs": [
        {
          "internalType": "address",
          "name": "to",
          "type": "address"
        },
        {
          "internalType": "uint256",
          "name": "tokenId",
          "type": "uint256"
        }
      ],
      "name": "approve",
      "outputs": [],
      "stateMutability": "nonpayable",
      "type": "function"
    },
    {
      "inputs": [
        {
          "internalType": "address",
          "name": "owner",
          "type": "address"
        }
      ],
      "name": "balanceOf",
      "outputs": [
        {
          "internalType": "uint256",
          "name": "",
          "type": "uint256"
        }
      ],
      "stateMutability": "view",
      "type": "function"
    },
    {
      "inputs": [
        {
          "internalType": "uint256",
          "name": "tokenId",
          "type": "uint256"
        }
      ],
      "name": "getApproved",
      "outputs": [
        {
          "internalType": "address",
          "name": "",
          "type": "address"
        }
      ],
      "stateMutability": "view",
      "type": "function"
    },
    {
      "inputs": [
        {
          "internalType": "address",
          "name": "owner",
          "type": "address"
        },
        {
          "internalType": "address",
          "name": "operator",
          "type": "address"
        }
      ],
      "name": "isApprovedForAll",
      "outputs": [
        {
          "internalType": "bool",
          "name": "",
          "type": "bool"
        }
      ],
      "stateMutability": "view",
      "type": "function"
    },
    {
      "inputs": [
        {
          "internalType": "address",
          "name": "_to",
          "type": "address"
        },
        {
          "internalType": "uint256",
          "name": "_tokenId",
          "type": "uint256"
        },
        {
          "internalType": "string",
          "name": "_uri",
          "type": "string"
        }
      ],
      "name": "mintCertificate",
      "outputs": [],
      "stateMutability": "nonpayable",
      "type": "function"
    },
    {
      "inputs": [],
      "name": "name",
      "outputs": [
        {
          "internalType": "string",
          "name": "",
          "type": "string"
        }
      ],
      "stateMutability": "view",
      "type": "function"
    },
    {
      "inputs": [
        {
          "internalType": "uint256",
          "name": "tokenId",
          "type": "uint256"
        }
      ],
      "name": "ownerOf",
      "outputs": [
        {
          "internalType": "address",
          "name": "",
          "type": "address"
        }
      ],
      "stateMutability": "view",
      "type": "function"
    },
    {
      "inputs": [
        {
          "internalType": "address",
          "name": "from",
          "type": "address"
        },
        {
          "internalType": "address",
          "name": "to",
          "type": "address"
        },
        {
          "internalType": "uint256",
          "name": "tokenId",
          "type": "uint256"
        }
      ],
      "name": "safeTransferFrom",
      "outputs": [],
      "stateMutability": "nonpayable",
      "type": "function"
    },
    {
      "inputs": [
        {
          "internalType": "address",
          "name": "from",
          "type": "address"
        },
        {
          "internalType": "address",
          "name": "to",
          "type": "address"
        },
        {
          "internalType": "uint256",
          "name": "tokenId",
          "type": "uint256"
        },
        {
          "internalType": "bytes",
          "name": "data",
          "type": "bytes"
        }
      ],
      "name": "safeTransferFrom",
      "outputs": [],
      "stateMutability": "nonpayable",
      "type": "function"
    },
    {
      "inputs": [
        {
          "internalType": "address",
          "name": "operator",
          "type": "address"
        },
        {
          "internalType": "bool",
          "name": "approved",
          "type": "bool"
        }
      ],
      "name": "setApprovalForAll",
      "outputs": [],
      "stateMutability": "nonpayable",
      "type": "function"
    },
    {
      "inputs": [
        {
          "internalType": "bytes4",
          "name": "interfaceId",
          "type": "bytes4"
        }
      ],
      "name": "supportsInterface",
      "outputs": [
        {
          "internalType": "bool",
          "name": "",
          "type": "bool"
        }
      ],
      "stateMutability": "view",
      "type": "function"
    },
    {
      "inputs": [],
      "name": "symbol",
      "outputs": [
        {
          "internalType": "string",
          "name": "",
          "type": "string"
        }
      ],
      "stateMutability": "view",
      "type": "function"
    },
    {
      "inputs": [
        {
          "internalType": "uint256",
          "name": "tokenId",
          "type": "uint256"
        }
      ],
      "name": "tokenURI",
      "outputs": [
        {
          "internalType": "string",
          "name": "",
          "type": "string"
        }
      ],
      "stateMutability": "view",
      "type": "function"
    },
    {
      "inputs": [
        {
          "internalType": "address",
          "name": "_to",
          "type": "address"
        },
        {
          "internalType": "address",
          "name": "_from",
          "type": "address"
        },
        {
          "internalType": "uint256",
          "name": "_tokenId",
          "type": "uint256"
        }
      ],
      "name": "transferCertificate",
      "outputs": [],
      "stateMutability": "nonpayable",
      "type": "function"
    },
    {
      "inputs": [
        {
          "internalType": "address",
          "name": "from",
          "type": "address"
        },
        {
          "internalType": "address",
          "name": "to",
          "type": "address"
        },
        {
          "internalType": "uint256",
          "name": "tokenId",
          "type": "uint256"
        }
      ],
      "name": "transferFrom",
      "outputs": [],
      "stateMutability": "nonpayable",
      "type": "function"
    }
  ],
  "bytecode": "0x60806040523480156200001157600080fd5b506040518060400160405280600f81526020017f4e465420436572746966696361746500000000000000000000000000000000008152506040518060400160405280600981526020017f446543657274696679000000000000000000000000000000000000000000000081525081600090816200008f919062000324565b508060019081620000a1919062000324565b5050506200040b565b600081519050919050565b7f4e487b7100000000000000000000000000000000000000000000000000000000600052604160045260246000fd5b7f4e487b7100000000000000000000000000000000000000000000000000000000600052602260045260246000fd5b600060028204905060018216806200012c57607f821691505b602082108103620001425762000141620000e4565b5b50919050565b60008190508160005260206000209050919050565b60006020601f8301049050919050565b600082821b905092915050565b600060088302620001ac7fffffffffffffffffffffffffffffffffffffffffffffffffffffffffffffffff826200016d565b620001b886836200016d565b95508019841693508086168417925050509392505050565b6000819050919050565b6000819050919050565b600062000205620001ff620001f984620001d0565b620001da565b620001d0565b9050919050565b6000819050919050565b6200022183620001e4565b6200023962000230826200020c565b8484546200017a565b825550505050565b600090565b6200025062000241565b6200025d81848462000216565b505050565b5b8181101562000285576200027960008262000246565b60018101905062000263565b5050565b601f821115620002d4576200029e8162000148565b620002a9846200015d565b81016020851015620002b9578190505b620002d1620002c8856200015d565b83018262000262565b50505b505050565b600082821c905092915050565b6000620002f960001984600802620002d9565b1980831691505092915050565b6000620003148383620002e6565b9150826002028217905092915050565b6200032f82620000aa565b67ffffffffffffffff8111156200034b576200034a620000b5565b5b62000357825462000113565b6200036482828562000289565b600060209050601f8311600181146200039c576000841562000387578287015190505b62000393858262000306565b86555062000403565b601f198416620003ac8662000148565b60005b82811015620003d657848901518255600182019150602085019450602081019050620003af565b86831015620003f65784890151620003f2601f891682620002e6565b8355505b6001600288020188555050505b505050505050565b6123ac806200041b6000396000f3fe608060405234801561001057600080fd5b50600436106101005760003560e01c806370a0823111610097578063b88d4fde11610066578063b88d4fde146102a9578063c87b56dd146102c5578063e985e9c5146102f5578063fe8807f31461032557610100565b806370a082311461022357806395d89b4114610253578063a22cb46514610271578063a70d0e451461028d57610100565b806323b872dd116100d357806323b872dd1461019f57806342842e0e146101bb57806362ae2a91146101d75780636352211e146101f357610100565b806301ffc9a71461010557806306fdde0314610135578063081812fc14610153578063095ea7b314610183575b600080fd5b61011f600480360381019061011a91906118a4565b610341565b60405161012c91906118ec565b60405180910390f35b61013d6103a2565b60405161014a9190611997565b60405180910390f35b61016d600480360381019061016891906119ef565b610434565b60405161017a9190611a5d565b60405180910390f35b61019d60048036038101906101989190611aa4565b610450565b005b6101b960048036038101906101b49190611ae4565b610466565b005b6101d560048036038101906101d09190611ae4565b610568565b005b6101f160048036038101906101ec91906119ef565b610588565b005b61020d600480360381019061020891906119ef565b610595565b60405161021a9190611a5d565b60405180910390f35b61023d60048036038101906102389190611b37565b6105a7565b60405161024a9190611b73565b60405180910390f35b61025b610661565b6040516102689190611997565b60405180910390f35b61028b60048036038101906102869190611bba565b6106f3565b005b6102a760048036038101906102a29190611c5f565b610709565b005b6102c360048036038101906102be9190611e03565b610771565b005b6102df60048036038101906102da91906119ef565b61078e565b6040516102ec9190611997565b60405180910390f35b61030f600480360381019061030a9190611e86565b6108a1565b60405161031c91906118ec565b60405180910390f35b61033f600480360381019061033a9190611ae4565b610935565b005b6000634906490660e01b7bffffffffffffffffffffffffffffffffffffffffffffffffffffffff1916827bffffffffffffffffffffffffffffffffffffffffffffffffffffffff1916148061039b575061039a82610950565b5b9050919050565b6060600080546103b190611ef5565b80601f01602080910402602001604051908101604052809291908181526020018280546103dd90611ef5565b801561042a5780601f106103ff5761010080835404028352916020019161042a565b820191906000526020600020905b81548152906001019060200180831161040d57829003601f168201915b5050505050905090565b600061043f82610a32565b5061044982610aba565b9050919050565b610462828261045d610af7565b610aff565b5050565b600073ffffffffffffffffffffffffffffffffffffffff168273ffffffffffffffffffffffffffffffffffffffff16036104d85760006040517f64a0ae920000000000000000000000000000000000000000000000000000000081526004016104cf9190611a5d565b60405180910390fd5b60006104ec83836104e7610af7565b610b11565b90508373ffffffffffffffffffffffffffffffffffffffff168173ffffffffffffffffffffffffffffffffffffffff1614610562578382826040517f64283d7b00000000000000000000000000000000000000000000000000000000815260040161055993929190611f26565b60405180910390fd5b50505050565b61058383838360405180602001604052806000815250610771565b505050565b61059181610595565b5050565b60006105a082610a32565b9050919050565b60008073ffffffffffffffffffffffffffffffffffffffff168273ffffffffffffffffffffffffffffffffffffffff160361061a5760006040517f89c62b640000000000000000000000000000000000000000000000000000000081526004016106119190611a5d565b60405180910390fd5b600360008373ffffffffffffffffffffffffffffffffffffffff1673ffffffffffffffffffffffffffffffffffffffff168152602001908152602001600020549050919050565b60606001805461067090611ef5565b80601f016020809104026020016040519081016040528092919081815260200182805461069c90611ef5565b80156106e95780601f106106be576101008083540402835291602001916106e9565b820191906000526020600020905b8154815290600101906020018083116106cc57829003601f168201915b5050505050905090565b6107056106fe610af7565b8383610d2b565b5050565b6107138484610450565b61071d8484610e9a565b61076b8383838080601f016020809104026020016040519081016040528093929190818152602001838380828437600081840152601f19601f82011690508083019250505050505050610f93565b50505050565b61077c848484610466565b61078884848484610fef565b50505050565b606061079982610a32565b5060006006600084815260200190815260200160002080546107ba90611ef5565b80601f01602080910402602001604051908101604052809291908181526020018280546107e690611ef5565b80156108335780601f1061080857610100808354040283529160200191610833565b820191906000526020600020905b81548152906001019060200180831161081657829003601f168201915b5050505050905060006108446111a6565b9050600081510361085957819250505061089c565b60008251111561088e578082604051602001610876929190611f99565b6040516020818303038152906040529250505061089c565b610897846111bd565b925050505b919050565b6000600560008473ffffffffffffffffffffffffffffffffffffffff1673ffffffffffffffffffffffffffffffffffffffff16815260200190815260200160002060008373ffffffffffffffffffffffffffffffffffffffff1673ffffffffffffffffffffffffffffffffffffffff16815260200190815260200160002060009054906101000a900460ff16905092915050565b6109408360016106f3565b61094b828483610568565b505050565b60007f80ac58cd000000000000000000000000000000000000000000000000000000007bffffffffffffffffffffffffffffffffffffffffffffffffffffffff1916827bffffffffffffffffffffffffffffffffffffffffffffffffffffffff19161480610a1b57507f5b5e139f000000000000000000000000000000000000000000000000000000007bffffffffffffffffffffffffffffffffffffffffffffffffffffffff1916827bffffffffffffffffffffffffffffffffffffffffffffffffffffffff1916145b80610a2b5750610a2a82611226565b5b9050919050565b600080610a3e83611290565b9050600073ffffffffffffffffffffffffffffffffffffffff168173ffffffffffffffffffffffffffffffffffffffff1603610ab157826040517f7e273289000000000000000000000000000000000000000000000000000000008152600401610aa89190611b73565b60405180910390fd5b80915050919050565b60006004600083815260200190815260200160002060009054906101000a900473ffffffffffffffffffffffffffffffffffffffff169050919050565b600033905090565b610b0c83838360016112cd565b505050565b600080610b1d84611290565b9050600073ffffffffffffffffffffffffffffffffffffffff168373ffffffffffffffffffffffffffffffffffffffff1614610b5f57610b5e818486611492565b5b600073ffffffffffffffffffffffffffffffffffffffff168173ffffffffffffffffffffffffffffffffffffffff1614610bf057610ba16000856000806112cd565b6001600360008373ffffffffffffffffffffffffffffffffffffffff1673ffffffffffffffffffffffffffffffffffffffff168152602001908152602001600020600082825403925050819055505b600073ffffffffffffffffffffffffffffffffffffffff168573ffffffffffffffffffffffffffffffffffffffff1614610c73576001600360008773ffffffffffffffffffffffffffffffffffffffff1673ffffffffffffffffffffffffffffffffffffffff168152602001908152602001600020600082825401925050819055505b846002600086815260200190815260200160002060006101000a81548173ffffffffffffffffffffffffffffffffffffffff021916908373ffffffffffffffffffffffffffffffffffffffff160217905550838573ffffffffffffffffffffffffffffffffffffffff168273ffffffffffffffffffffffffffffffffffffffff167fddf252ad1be2c89b69c2b068fc378daa952ba7f163c4a11628f55a4df523b3ef60405160405180910390a4809150509392505050565b600073ffffffffffffffffffffffffffffffffffffffff168273ffffffffffffffffffffffffffffffffffffffff1603610d9c57816040517f5b08ba18000000000000000000000000000000000000000000000000000000008152600401610d939190611a5d565b60405180910390fd5b80600560008573ffffffffffffffffffffffffffffffffffffffff1673ffffffffffffffffffffffffffffffffffffffff16815260200190815260200160002060008473ffffffffffffffffffffffffffffffffffffffff1673ffffffffffffffffffffffffffffffffffffffff16815260200190815260200160002060006101000a81548160ff0219169083151502179055508173ffffffffffffffffffffffffffffffffffffffff168373ffffffffffffffffffffffffffffffffffffffff167f17307eab39ab6107e8899845ad3d59bd9653f200f220920489ca2b5937696c3183604051610e8d91906118ec565b60405180910390a3505050565b600073ffffffffffffffffffffffffffffffffffffffff168273ffffffffffffffffffffffffffffffffffffffff1603610f0c5760006040517f64a0ae92000000000000000000000000000000000000000000000000000000008152600401610f039190611a5d565b60405180910390fd5b6000610f1a83836000610b11565b9050600073ffffffffffffffffffffffffffffffffffffffff168173ffffffffffffffffffffffffffffffffffffffff1614610f8e5760006040517f73c6ac6e000000000000000000000000000000000000000000000000000000008152600401610f859190611a5d565b60405180910390fd5b505050565b80600660008481526020019081526020016000209081610fb39190612169565b507ff8e1a15aba9398e019f0b49df1a4fde98ee17ae345cb5f6b5e2c27f5033e8ce782604051610fe39190611b73565b60405180910390a15050565b60008373ffffffffffffffffffffffffffffffffffffffff163b11156111a0578273ffffffffffffffffffffffffffffffffffffffff1663150b7a02611033610af7565b8685856040518563ffffffff1660e01b81526004016110559493929190612290565b6020604051808303816000875af192505050801561109157506040513d601f19601f8201168201806040525081019061108e91906122f1565b60015b611115573d80600081146110c1576040519150601f19603f3d011682016040523d82523d6000602084013e6110c6565b606091505b50600081510361110d57836040517f64a0ae920000000000000000000000000000000000000000000000000000000081526004016111049190611a5d565b60405180910390fd5b805181602001fd5b63150b7a0260e01b7bffffffffffffffffffffffffffffffffffffffffffffffffffffffff1916817bffffffffffffffffffffffffffffffffffffffffffffffffffffffff19161461119e57836040517f64a0ae920000000000000000000000000000000000000000000000000000000081526004016111959190611a5d565b60405180910390fd5b505b50505050565b606060405180602001604052806000815250905090565b60606111c882610a32565b5060006111d36111a6565b905060008151116111f3576040518060200160405280600081525061121e565b806111fd84611556565b60405160200161120e929190611f99565b6040516020818303038152906040525b915050919050565b60007f01ffc9a7000000000000000000000000000000000000000000000000000000007bffffffffffffffffffffffffffffffffffffffffffffffffffffffff1916827bffffffffffffffffffffffffffffffffffffffffffffffffffffffff1916149050919050565b60006002600083815260200190815260200160002060009054906101000a900473ffffffffffffffffffffffffffffffffffffffff169050919050565b80806113065750600073ffffffffffffffffffffffffffffffffffffffff168273ffffffffffffffffffffffffffffffffffffffff1614155b1561143a57600061131684610a32565b9050600073ffffffffffffffffffffffffffffffffffffffff168373ffffffffffffffffffffffffffffffffffffffff161415801561138157508273ffffffffffffffffffffffffffffffffffffffff168173ffffffffffffffffffffffffffffffffffffffff1614155b8015611394575061139281846108a1565b155b156113d657826040517fa9fbf51f0000000000000000000000000000000000000000000000000000000081526004016113cd9190611a5d565b60405180910390fd5b811561143857838573ffffffffffffffffffffffffffffffffffffffff168273ffffffffffffffffffffffffffffffffffffffff167f8c5be1e5ebec7d5bd14f71427d1e84f3dd0314c0f7b2291e5b200ac8c7c3b92560405160405180910390a45b505b836004600085815260200190815260200160002060006101000a81548173ffffffffffffffffffffffffffffffffffffffff021916908373ffffffffffffffffffffffffffffffffffffffff16021790555050505050565b61149d838383611624565b61155157600073ffffffffffffffffffffffffffffffffffffffff168373ffffffffffffffffffffffffffffffffffffffff160361151257806040517f7e2732890000000000000000000000000000000000000000000000000000000081526004016115099190611b73565b60405180910390fd5b81816040517f177e802f00000000000000000000000000000000000000000000000000000000815260040161154892919061231e565b60405180910390fd5b505050565b606060006001611565846116e5565b01905060008167ffffffffffffffff81111561158457611583611cd8565b5b6040519080825280601f01601f1916602001820160405280156115b65781602001600182028036833780820191505090505b509050600082602001820190505b600115611619578080600190039150507f3031323334353637383961626364656600000000000000000000000000000000600a86061a8153600a858161160d5761160c612347565b5b049450600085036115c4575b819350505050919050565b60008073ffffffffffffffffffffffffffffffffffffffff168373ffffffffffffffffffffffffffffffffffffffff16141580156116dc57508273ffffffffffffffffffffffffffffffffffffffff168473ffffffffffffffffffffffffffffffffffffffff16148061169d575061169c84846108a1565b5b806116db57508273ffffffffffffffffffffffffffffffffffffffff166116c383610aba565b73ffffffffffffffffffffffffffffffffffffffff16145b5b90509392505050565b600080600090507a184f03e93ff9f4daa797ed6e38ed64bf6a1f0100000000000000008310611743577a184f03e93ff9f4daa797ed6e38ed64bf6a1f010000000000000000838161173957611738612347565b5b0492506040810190505b6d04ee2d6d415b85acef81000000008310611780576d04ee2d6d415b85acef8100000000838161177657611775612347565b5b0492506020810190505b662386f26fc1000083106117af57662386f26fc1000083816117a5576117a4612347565b5b0492506010810190505b6305f5e10083106117d8576305f5e10083816117ce576117cd612347565b5b0492506008810190505b61271083106117fd5761271083816117f3576117f2612347565b5b0492506004810190505b60648310611820576064838161181657611815612347565b5b0492506002810190505b600a831061182f576001810190505b80915050919050565b6000604051905090565b600080fd5b600080fd5b60007fffffffff0000000000000000000000000000000000000000000000000000000082169050919050565b6118818161184c565b811461188c57600080fd5b50565b60008135905061189e81611878565b92915050565b6000602082840312156118ba576118b9611842565b5b60006118c88482850161188f565b91505092915050565b60008115159050919050565b6118e6816118d1565b82525050565b600060208201905061190160008301846118dd565b92915050565b600081519050919050565b600082825260208201905092915050565b60005b83811015611941578082015181840152602081019050611926565b60008484015250505050565b6000601f19601f8301169050919050565b600061196982611907565b6119738185611912565b9350611983818560208601611923565b61198c8161194d565b840191505092915050565b600060208201905081810360008301526119b1818461195e565b905092915050565b6000819050919050565b6119cc816119b9565b81146119d757600080fd5b50565b6000813590506119e9816119c3565b92915050565b600060208284031215611a0557611a04611842565b5b6000611a13848285016119da565b91505092915050565b600073ffffffffffffffffffffffffffffffffffffffff82169050919050565b6000611a4782611a1c565b9050919050565b611a5781611a3c565b82525050565b6000602082019050611a726000830184611a4e565b92915050565b611a8181611a3c565b8114611a8c57600080fd5b50565b600081359050611a9e81611a78565b92915050565b60008060408385031215611abb57611aba611842565b5b6000611ac985828601611a8f565b9250506020611ada858286016119da565b9150509250929050565b600080600060608486031215611afd57611afc611842565b5b6000611b0b86828701611a8f565b9350506020611b1c86828701611a8f565b9250506040611b2d868287016119da565b9150509250925092565b600060208284031215611b4d57611b4c611842565b5b6000611b5b84828501611a8f565b91505092915050565b611b6d816119b9565b82525050565b6000602082019050611b886000830184611b64565b92915050565b611b97816118d1565b8114611ba257600080fd5b50565b600081359050611bb481611b8e565b92915050565b60008060408385031215611bd157611bd0611842565b5b6000611bdf85828601611a8f565b9250506020611bf085828601611ba5565b9150509250929050565b600080fd5b600080fd5b600080fd5b60008083601f840112611c1f57611c1e611bfa565b5b8235905067ffffffffffffffff811115611c3c57611c3b611bff565b5b602083019150836001820283011115611c5857611c57611c04565b5b9250929050565b60008060008060608587031215611c7957611c78611842565b5b6000611c8787828801611a8f565b9450506020611c98878288016119da565b935050604085013567ffffffffffffffff811115611cb957611cb8611847565b5b611cc587828801611c09565b925092505092959194509250565b600080fd5b7f4e487b7100000000000000000000000000000000000000000000000000000000600052604160045260246000fd5b611d108261194d565b810181811067ffffffffffffffff82111715611d2f57611d2e611cd8565b5b80604052505050565b6000611d42611838565b9050611d4e8282611d07565b919050565b600067ffffffffffffffff821115611d6e57611d6d611cd8565b5b611d778261194d565b9050602081019050919050565b82818337600083830152505050565b6000611da6611da184611d53565b611d38565b905082815260208101848484011115611dc257611dc1611cd3565b5b611dcd848285611d84565b509392505050565b600082601f830112611dea57611de9611bfa565b5b8135611dfa848260208601611d93565b91505092915050565b60008060008060808587031215611e1d57611e1c611842565b5b6000611e2b87828801611a8f565b9450506020611e3c87828801611a8f565b9350506040611e4d878288016119da565b925050606085013567ffffffffffffffff811115611e6e57611e6d611847565b5b611e7a87828801611dd5565b91505092959194509250565b60008060408385031215611e9d57611e9c611842565b5b6000611eab85828601611a8f565b9250506020611ebc85828601611a8f565b9150509250929050565b7f4e487b7100000000000000000000000000000000000000000000000000000000600052602260045260246000fd5b60006002820490506001821680611f0d57607f821691505b602082108103611f2057611f1f611ec6565b5b50919050565b6000606082019050611f3b6000830186611a4e565b611f486020830185611b64565b611f556040830184611a4e565b949350505050565b600081905092915050565b6000611f7382611907565b611f7d8185611f5d565b9350611f8d818560208601611923565b80840191505092915050565b6000611fa58285611f68565b9150611fb18284611f68565b91508190509392505050565b60008190508160005260206000209050919050565b60006020601f8301049050919050565b600082821b905092915050565b60006008830261201f7fffffffffffffffffffffffffffffffffffffffffffffffffffffffffffffffff82611fe2565b6120298683611fe2565b95508019841693508086168417925050509392505050565b6000819050919050565b600061206661206161205c846119b9565b612041565b6119b9565b9050919050565b6000819050919050565b6120808361204b565b61209461208c8261206d565b848454611fef565b825550505050565b600090565b6120a961209c565b6120b4818484612077565b505050565b5b818110156120d8576120cd6000826120a1565b6001810190506120ba565b5050565b601f82111561211d576120ee81611fbd565b6120f784611fd2565b81016020851015612106578190505b61211a61211285611fd2565b8301826120b9565b50505b505050565b600082821c905092915050565b600061214060001984600802612122565b1980831691505092915050565b6000612159838361212f565b9150826002028217905092915050565b61217282611907565b67ffffffffffffffff81111561218b5761218a611cd8565b5b6121958254611ef5565b6121a08282856120dc565b600060209050601f8311600181146121d357600084156121c1578287015190505b6121cb858261214d565b865550612233565b601f1984166121e186611fbd565b60005b82811015612209578489015182556001820191506020850194506020810190506121e4565b868310156122265784890151612222601f89168261212f565b8355505b6001600288020188555050505b505050505050565b600081519050919050565b600082825260208201905092915050565b60006122628261223b565b61226c8185612246565b935061227c818560208601611923565b6122858161194d565b840191505092915050565b60006080820190506122a56000830187611a4e565b6122b26020830186611a4e565b6122bf6040830185611b64565b81810360608301526122d18184612257565b905095945050505050565b6000815190506122eb81611878565b92915050565b60006020828403121561230757612306611842565b5b6000612315848285016122dc565b91505092915050565b60006040820190506123336000830185611a4e565b6123406020830184611b64565b9392505050565b7f4e487b7100000000000000000000000000000000000000000000000000000000600052601260045260246000fdfea264697066735822122097bcd593530723d007c01cbb73335b17e82802e8e31c826789d7e265488fcaea64736f6c63430008140033",
  "linkReferences": {},
  "deployedLinkReferences": {}
}